{
  "_format": "hh-sol-artifact-1",
  "contractName": "CoinsLeagueChampionsMumbai",
  "sourceName": "contracts/CoinLeagueChampionsMumbai.sol",
  "abi": [
    {
      "inputs": [
        {
          "internalType": "address",
          "name": "_VRFCoordinator",
          "type": "address"
        },
        {
          "internalType": "address",
          "name": "_LinkToken",
          "type": "address"
        },
        {
          "internalType": "bytes32",
          "name": "_keyhash",
          "type": "bytes32"
        },
        {
          "internalType": "address",
          "name": "_kit",
          "type": "address"
        },
        {
          "internalType": "address",
          "name": "_bittoken",
          "type": "address"
        }
      ],
      "stateMutability": "nonpayable",
      "type": "constructor"
    },
    {
      "anonymous": false,
      "inputs": [
        {
          "indexed": true,
          "internalType": "address",
          "name": "owner",
          "type": "address"
        },
        {
          "indexed": true,
          "internalType": "address",
          "name": "approved",
          "type": "address"
        },
        {
          "indexed": true,
          "internalType": "uint256",
          "name": "tokenId",
          "type": "uint256"
        }
      ],
      "name": "Approval",
      "type": "event"
    },
    {
      "anonymous": false,
      "inputs": [
        {
          "indexed": true,
          "internalType": "address",
          "name": "owner",
          "type": "address"
        },
        {
          "indexed": true,
          "internalType": "address",
          "name": "operator",
          "type": "address"
        },
        {
          "indexed": false,
          "internalType": "bool",
          "name": "approved",
          "type": "bool"
        }
      ],
      "name": "ApprovalForAll",
      "type": "event"
    },
    {
      "anonymous": false,
      "inputs": [
        {
          "indexed": true,
          "internalType": "address",
          "name": "previousOwner",
          "type": "address"
        },
        {
          "indexed": true,
          "internalType": "address",
          "name": "newOwner",
          "type": "address"
        }
      ],
      "name": "OwnershipTransferred",
      "type": "event"
    },
    {
      "anonymous": false,
      "inputs": [
        {
          "indexed": true,
          "internalType": "address",
          "name": "from",
          "type": "address"
        },
        {
          "indexed": true,
          "internalType": "address",
          "name": "to",
          "type": "address"
        },
        {
          "indexed": true,
          "internalType": "uint256",
          "name": "tokenId",
          "type": "uint256"
        }
      ],
      "name": "Transfer",
      "type": "event"
    },
    {
      "inputs": [
        {
          "internalType": "address",
          "name": "to",
          "type": "address"
        },
        {
          "internalType": "uint256",
          "name": "tokenId",
          "type": "uint256"
        }
      ],
      "name": "approve",
      "outputs": [],
      "stateMutability": "nonpayable",
      "type": "function"
    },
    {
      "inputs": [
        {
          "internalType": "address",
          "name": "owner",
          "type": "address"
        }
      ],
      "name": "balanceOf",
      "outputs": [
        {
          "internalType": "uint256",
          "name": "",
          "type": "uint256"
        }
      ],
      "stateMutability": "view",
      "type": "function"
    },
    {
      "inputs": [],
      "name": "canSaleEarly",
      "outputs": [
        {
          "internalType": "bool",
          "name": "",
          "type": "bool"
        }
      ],
      "stateMutability": "nonpayable",
      "type": "function"
    },
    {
      "inputs": [],
      "name": "contractURI",
      "outputs": [
        {
          "internalType": "string",
          "name": "",
          "type": "string"
        }
      ],
      "stateMutability": "view",
      "type": "function"
    },
    {
      "inputs": [
        {
          "internalType": "uint256",
          "name": "tokenId",
          "type": "uint256"
        }
      ],
      "name": "getApproved",
      "outputs": [
        {
          "internalType": "address",
          "name": "",
          "type": "address"
        }
      ],
      "stateMutability": "view",
      "type": "function"
    },
    {
      "inputs": [
        {
          "internalType": "address",
          "name": "owner",
          "type": "address"
        },
        {
          "internalType": "address",
          "name": "operator",
          "type": "address"
        }
      ],
      "name": "isApprovedForAll",
      "outputs": [
        {
          "internalType": "bool",
          "name": "",
          "type": "bool"
        }
      ],
      "stateMutability": "view",
      "type": "function"
    },
    {
      "inputs": [],
      "name": "name",
      "outputs": [
        {
          "internalType": "string",
          "name": "",
          "type": "string"
        }
      ],
      "stateMutability": "view",
      "type": "function"
    },
    {
      "inputs": [],
      "name": "owner",
      "outputs": [
        {
          "internalType": "address",
          "name": "",
          "type": "address"
        }
      ],
      "stateMutability": "view",
      "type": "function"
    },
    {
      "inputs": [
        {
          "internalType": "uint256",
          "name": "tokenId",
          "type": "uint256"
        }
      ],
      "name": "ownerOf",
      "outputs": [
        {
          "internalType": "address",
          "name": "",
          "type": "address"
        }
      ],
      "stateMutability": "view",
      "type": "function"
    },
    {
      "inputs": [],
      "name": "price",
      "outputs": [
        {
          "internalType": "uint256",
          "name": "",
          "type": "uint256"
        }
      ],
      "stateMutability": "pure",
      "type": "function"
    },
    {
      "inputs": [],
      "name": "randomResult",
      "outputs": [
        {
          "internalType": "uint256",
          "name": "",
          "type": "uint256"
        }
      ],
      "stateMutability": "view",
      "type": "function"
    },
    {
      "inputs": [
        {
          "internalType": "uint256",
          "name": "",
          "type": "uint256"
        }
      ],
      "name": "rarity",
      "outputs": [
        {
          "internalType": "uint256",
          "name": "",
          "type": "uint256"
        }
      ],
      "stateMutability": "view",
      "type": "function"
    },
    {
      "inputs": [
        {
          "internalType": "bytes32",
          "name": "requestId",
          "type": "bytes32"
        },
        {
          "internalType": "uint256",
          "name": "randomness",
          "type": "uint256"
        }
      ],
      "name": "rawFulfillRandomness",
      "outputs": [],
      "stateMutability": "nonpayable",
      "type": "function"
    },
    {
      "inputs": [],
      "name": "renounceOwnership",
      "outputs": [],
      "stateMutability": "nonpayable",
      "type": "function"
    },
    {
      "inputs": [],
      "name": "safeMint",
      "outputs": [
        {
          "internalType": "bytes32",
          "name": "requestId",
          "type": "bytes32"
        }
      ],
      "stateMutability": "payable",
      "type": "function"
    },
    {
      "inputs": [
        {
          "internalType": "address",
          "name": "from",
          "type": "address"
        },
        {
          "internalType": "address",
          "name": "to",
          "type": "address"
        },
        {
          "internalType": "uint256",
          "name": "tokenId",
          "type": "uint256"
        }
      ],
      "name": "safeTransferFrom",
      "outputs": [],
      "stateMutability": "nonpayable",
      "type": "function"
    },
    {
      "inputs": [
        {
          "internalType": "address",
          "name": "from",
          "type": "address"
        },
        {
          "internalType": "address",
          "name": "to",
          "type": "address"
        },
        {
          "internalType": "uint256",
          "name": "tokenId",
          "type": "uint256"
        },
        {
          "internalType": "bytes",
          "name": "_data",
          "type": "bytes"
        }
      ],
      "name": "safeTransferFrom",
      "outputs": [],
      "stateMutability": "nonpayable",
      "type": "function"
    },
    {
      "inputs": [
        {
          "internalType": "address",
          "name": "operator",
          "type": "address"
        },
        {
          "internalType": "bool",
          "name": "approved",
          "type": "bool"
        }
      ],
      "name": "setApprovalForAll",
      "outputs": [],
      "stateMutability": "nonpayable",
      "type": "function"
    },
    {
      "inputs": [
        {
          "internalType": "bytes4",
          "name": "interfaceId",
          "type": "bytes4"
        }
      ],
      "name": "supportsInterface",
      "outputs": [
        {
          "internalType": "bool",
          "name": "",
          "type": "bool"
        }
      ],
      "stateMutability": "view",
      "type": "function"
    },
    {
      "inputs": [],
      "name": "symbol",
      "outputs": [
        {
          "internalType": "string",
          "name": "",
          "type": "string"
        }
      ],
      "stateMutability": "view",
      "type": "function"
    },
    {
      "inputs": [
        {
          "internalType": "uint256",
          "name": "tokenId",
          "type": "uint256"
        }
      ],
      "name": "tokenURI",
      "outputs": [
        {
          "internalType": "string",
          "name": "",
          "type": "string"
        }
      ],
      "stateMutability": "view",
      "type": "function"
    },
    {
      "inputs": [
        {
          "internalType": "address",
          "name": "from",
          "type": "address"
        },
        {
          "internalType": "address",
          "name": "to",
          "type": "address"
        },
        {
          "internalType": "uint256",
          "name": "tokenId",
          "type": "uint256"
        }
      ],
      "name": "transferFrom",
      "outputs": [],
      "stateMutability": "nonpayable",
      "type": "function"
    },
    {
      "inputs": [
        {
          "internalType": "address",
          "name": "newOwner",
          "type": "address"
        }
      ],
      "name": "transferOwnership",
      "outputs": [],
      "stateMutability": "nonpayable",
      "type": "function"
    },
    {
      "inputs": [],
      "name": "withdrawETH",
      "outputs": [],
      "stateMutability": "payable",
      "type": "function"
    },
    {
      "inputs": [],
      "name": "withdrawLink",
      "outputs": [],
      "stateMutability": "nonpayable",
      "type": "function"
    }
  ],
  "bytecode": "0x610100604052604051806101200160405280600061ffff168152602001600a61ffff168152602001603c61ffff168152602001608761ffff16815260200160e161ffff16815260200161015e61ffff1681526020016101f461ffff1681526020016102bc61ffff1681526020016103e861ffff16815250600f9060096200008892919062000349565b503480156200009657600080fd5b5060405162004297380380620042978339818101604052810190620000bc91906200047f565b84846040518060400160405280601481526020017f436f696e734c65616775654368616d70696f6e730000000000000000000000008152506040518060400160405280600981526020017f4368616d70696f6e730000000000000000000000000000000000000000000000815250816000908051906020019062000142929190620003a1565b5080600190805190602001906200015b929190620003a1565b5050508173ffffffffffffffffffffffffffffffffffffffff1660a08173ffffffffffffffffffffffffffffffffffffffff1660601b815250508073ffffffffffffffffffffffffffffffffffffffff1660808173ffffffffffffffffffffffffffffffffffffffff1660601b815250505050620001ee620001e26200027b60201b60201c565b6200028360201b60201c565b82600981905550655af3107a4000600a819055508173ffffffffffffffffffffffffffffffffffffffff1660c08173ffffffffffffffffffffffffffffffffffffffff1660601b815250508073ffffffffffffffffffffffffffffffffffffffff1660e08173ffffffffffffffffffffffffffffffffffffffff1660601b815250505050505050620005d8565b600033905090565b6000600760009054906101000a900473ffffffffffffffffffffffffffffffffffffffff16905081600760006101000a81548173ffffffffffffffffffffffffffffffffffffffff021916908373ffffffffffffffffffffffffffffffffffffffff1602179055508173ffffffffffffffffffffffffffffffffffffffff168173ffffffffffffffffffffffffffffffffffffffff167f8be0079c531659141344cd1fd0a4f28419497f9722a3daafe3b4186f6b6457e060405160405180910390a35050565b8280548282559060005260206000209081019282156200038e579160200282015b828111156200038d578251829061ffff169055916020019190600101906200036a565b5b5090506200039d919062000432565b5090565b828054620003af906200053f565b90600052602060002090601f016020900481019282620003d357600085556200041f565b82601f10620003ee57805160ff19168380011785556200041f565b828001600101855582156200041f579182015b828111156200041e57825182559160200191906001019062000401565b5b5090506200042e919062000432565b5090565b5b808211156200044d57600081600090555060010162000433565b5090565b6000815190506200046281620005a4565b92915050565b6000815190506200047981620005be565b92915050565b600080600080600060a086880312156200049857600080fd5b6000620004a88882890162000451565b9550506020620004bb8882890162000451565b9450506040620004ce8882890162000468565b9350506060620004e18882890162000451565b9250506080620004f48882890162000451565b9150509295509295909350565b60006200050e826200051f565b9050919050565b6000819050919050565b600073ffffffffffffffffffffffffffffffffffffffff82169050919050565b600060028204905060018216806200055857607f821691505b602082108114156200056f576200056e62000575565b5b50919050565b7f4e487b7100000000000000000000000000000000000000000000000000000000600052602260045260246000fd5b620005af8162000501565b8114620005bb57600080fd5b50565b620005c98162000515565b8114620005d557600080fd5b50565b60805160601c60a05160601c60c05160601c60e05160601c613c5d6200063a60003960006114380152600061137d015260008181610fab0152611ce4015260008181610a0801528181610e4c01528181610e900152611ca80152613c5d6000f3fe6080604052600436106101665760003560e01c80638da5cb5b116100d1578063b88d4fde1161008a578063e086e5ec11610064578063e086e5ec1461051d578063e8a3d48514610527578063e985e9c514610552578063f2fde38b1461058f57610166565b8063b88d4fde1461048c578063c87b56dd146104b5578063db7a56d2146104f257610166565b80638da5cb5b146103a25780638dc654a2146103cd57806394985ddd146103e457806395d89b411461040d578063a035b1fe14610438578063a22cb4651461046357610166565b806342842e0e1161012357806342842e0e1461028d5780636352211e146102b65780636871ee40146102f357806370a0823114610311578063715018a61461034e5780638b58c5691461036557610166565b806301ffc9a71461016b57806306fdde03146101a8578063081812fc146101d3578063095ea7b31461021057806323b872dd1461023957806342619f6614610262575b600080fd5b34801561017757600080fd5b50610192600480360381019061018d91906129fa565b6105b8565b60405161019f9190613426565b60405180910390f35b3480156101b457600080fd5b506101bd61069a565b6040516101ca91906134ca565b60405180910390f35b3480156101df57600080fd5b506101fa60048036038101906101f59190612a4c565b61072c565b6040516102079190613358565b60405180910390f35b34801561021c57600080fd5b5061023760048036038101906102329190612959565b6107b1565b005b34801561024557600080fd5b50610260600480360381019061025b9190612853565b6108c9565b005b34801561026e57600080fd5b50610277610929565b604051610284919061378c565b60405180910390f35b34801561029957600080fd5b506102b460048036038101906102af9190612853565b61092f565b005b3480156102c257600080fd5b506102dd60048036038101906102d89190612a4c565b61094f565b6040516102ea9190613358565b60405180910390f35b6102fb610a01565b6040516103089190613441565b60405180910390f35b34801561031d57600080fd5b50610338600480360381019061033391906127ee565b610c4c565b604051610345919061378c565b60405180910390f35b34801561035a57600080fd5b50610363610d04565b005b34801561037157600080fd5b5061038c60048036038101906103879190612a4c565b610d8c565b604051610399919061378c565b60405180910390f35b3480156103ae57600080fd5b506103b7610da4565b6040516103c49190613358565b60405180910390f35b3480156103d957600080fd5b506103e2610dce565b005b3480156103f057600080fd5b5061040b600480360381019061040691906129be565b610fa9565b005b34801561041957600080fd5b50610422611045565b60405161042f91906134ca565b60405180910390f35b34801561044457600080fd5b5061044d6110d7565b60405161045a919061378c565b60405180910390f35b34801561046f57600080fd5b5061048a6004803603810190610485919061291d565b6110e6565b005b34801561049857600080fd5b506104b360048036038101906104ae91906128a2565b611267565b005b3480156104c157600080fd5b506104dc60048036038101906104d79190612a4c565b6112c9565b6040516104e991906134ca565b60405180910390f35b3480156104fe57600080fd5b50610507611370565b6040516105149190613426565b60405180910390f35b6105256114e7565b005b34801561053357600080fd5b5061053c611619565b60405161054991906134ca565b60405180910390f35b34801561055e57600080fd5b5061057960048036038101906105749190612817565b611639565b6040516105869190613426565b60405180910390f35b34801561059b57600080fd5b506105b660048036038101906105b191906127ee565b6116cd565b005b60007f80ac58cd000000000000000000000000000000000000000000000000000000007bffffffffffffffffffffffffffffffffffffffffffffffffffffffff1916827bffffffffffffffffffffffffffffffffffffffffffffffffffffffff1916148061068357507f5b5e139f000000000000000000000000000000000000000000000000000000007bffffffffffffffffffffffffffffffffffffffffffffffffffffffff1916827bffffffffffffffffffffffffffffffffffffffffffffffffffffffff1916145b806106935750610692826117c5565b5b9050919050565b6060600080546106a9906139d1565b80601f01602080910402602001604051908101604052809291908181526020018280546106d5906139d1565b80156107225780601f106106f757610100808354040283529160200191610722565b820191906000526020600020905b81548152906001019060200180831161070557829003601f168201915b5050505050905090565b60006107378261182f565b610776576040517f08c379a000000000000000000000000000000000000000000000000000000000815260040161076d9061368c565b60405180910390fd5b6004600083815260200190815260200160002060009054906101000a900473ffffffffffffffffffffffffffffffffffffffff169050919050565b60006107bc8261094f565b90508073ffffffffffffffffffffffffffffffffffffffff168373ffffffffffffffffffffffffffffffffffffffff16141561082d576040517f08c379a00000000000000000000000000000000000000000000000000000000081526004016108249061372c565b60405180910390fd5b8073ffffffffffffffffffffffffffffffffffffffff1661084c61189b565b73ffffffffffffffffffffffffffffffffffffffff16148061087b575061087a8161087561189b565b611639565b5b6108ba576040517f08c379a00000000000000000000000000000000000000000000000000000000081526004016108b1906135cc565b60405180910390fd5b6108c483836118a3565b505050565b6108da6108d461189b565b8261195c565b610919576040517f08c379a00000000000000000000000000000000000000000000000000000000081526004016109109061374c565b60405180910390fd5b610924838383611a3a565b505050565b600b5481565b61094a83838360405180602001604052806000815250611267565b505050565b6000806002600084815260200190815260200160002060009054906101000a900473ffffffffffffffffffffffffffffffffffffffff169050600073ffffffffffffffffffffffffffffffffffffffff168173ffffffffffffffffffffffffffffffffffffffff1614156109f8576040517f08c379a00000000000000000000000000000000000000000000000000000000081526004016109ef9061360c565b60405180910390fd5b80915050919050565b6000600a547f000000000000000000000000000000000000000000000000000000000000000073ffffffffffffffffffffffffffffffffffffffff166370a08231306040518263ffffffff1660e01b8152600401610a5f9190613358565b60206040518083038186803b158015610a7757600080fd5b505afa158015610a8b573d6000803e3d6000fd5b505050506040513d601f19601f82011682018060405250810190610aaf9190612a75565b1015610af0576040517f08c379a0000000000000000000000000000000000000000000000000000000008152600401610ae79061362c565b60405180910390fd5b610af8611370565b15610b1357636151d018421015610b0e57600080fd5b610b25565b636151d018421015610b2457600080fd5b5b613a98610b326008611c96565b1115610b73576040517f08c379a0000000000000000000000000000000000000000000000000000000008152600401610b6a9061366c565b60405180910390fd5b66038d7ea4c680003414610bbc576040517f08c379a0000000000000000000000000000000000000000000000000000000008152600401610bb39061376c565b60405180910390fd5b610bca600954600a54611ca4565b905033600d600083815260200190815260200160002060006101000a81548173ffffffffffffffffffffffffffffffffffffffff021916908373ffffffffffffffffffffffffffffffffffffffff160217905550610c286008611c96565b600e600083815260200190815260200160002081905550610c496008611e06565b90565b60008073ffffffffffffffffffffffffffffffffffffffff168273ffffffffffffffffffffffffffffffffffffffff161415610cbd576040517f08c379a0000000000000000000000000000000000000000000000000000000008152600401610cb4906135ec565b60405180910390fd5b600360008373ffffffffffffffffffffffffffffffffffffffff1673ffffffffffffffffffffffffffffffffffffffff168152602001908152602001600020549050919050565b610d0c61189b565b73ffffffffffffffffffffffffffffffffffffffff16610d2a610da4565b73ffffffffffffffffffffffffffffffffffffffff1614610d80576040517f08c379a0000000000000000000000000000000000000000000000000000000008152600401610d77906136ac565b60405180910390fd5b610d8a6000611e1c565b565b600c6020528060005260406000206000915090505481565b6000600760009054906101000a900473ffffffffffffffffffffffffffffffffffffffff16905090565b610dd661189b565b73ffffffffffffffffffffffffffffffffffffffff16610df4610da4565b73ffffffffffffffffffffffffffffffffffffffff1614610e4a576040517f08c379a0000000000000000000000000000000000000000000000000000000008152600401610e41906136ac565b60405180910390fd5b7f000000000000000000000000000000000000000000000000000000000000000073ffffffffffffffffffffffffffffffffffffffff1663a9059cbb610e8e610da4565b7f000000000000000000000000000000000000000000000000000000000000000073ffffffffffffffffffffffffffffffffffffffff166370a08231306040518263ffffffff1660e01b8152600401610ee79190613358565b60206040518083038186803b158015610eff57600080fd5b505afa158015610f13573d6000803e3d6000fd5b505050506040513d601f19601f82011682018060405250810190610f379190612a75565b6040518363ffffffff1660e01b8152600401610f549291906133bf565b602060405180830381600087803b158015610f6e57600080fd5b505af1158015610f82573d6000803e3d6000fd5b505050506040513d601f19601f82011682018060405250810190610fa69190612995565b50565b7f000000000000000000000000000000000000000000000000000000000000000073ffffffffffffffffffffffffffffffffffffffff163373ffffffffffffffffffffffffffffffffffffffff1614611037576040517f08c379a000000000000000000000000000000000000000000000000000000000815260040161102e9061370c565b60405180910390fd5b6110418282611ee2565b5050565b606060018054611054906139d1565b80601f0160208091040260200160405190810160405280929190818152602001828054611080906139d1565b80156110cd5780601f106110a2576101008083540402835291602001916110cd565b820191906000526020600020905b8154815290600101906020018083116110b057829003601f168201915b5050505050905090565b600066038d7ea4c68000905090565b6110ee61189b565b73ffffffffffffffffffffffffffffffffffffffff168273ffffffffffffffffffffffffffffffffffffffff16141561115c576040517f08c379a00000000000000000000000000000000000000000000000000000000081526004016111539061358c565b60405180910390fd5b806005600061116961189b565b73ffffffffffffffffffffffffffffffffffffffff1673ffffffffffffffffffffffffffffffffffffffff16815260200190815260200160002060008473ffffffffffffffffffffffffffffffffffffffff1673ffffffffffffffffffffffffffffffffffffffff16815260200190815260200160002060006101000a81548160ff0219169083151502179055508173ffffffffffffffffffffffffffffffffffffffff1661121661189b565b73ffffffffffffffffffffffffffffffffffffffff167f17307eab39ab6107e8899845ad3d59bd9653f200f220920489ca2b5937696c318360405161125b9190613426565b60405180910390a35050565b61127861127261189b565b8361195c565b6112b7576040517f08c379a00000000000000000000000000000000000000000000000000000000081526004016112ae9061374c565b60405180910390fd5b6112c384848484612050565b50505050565b60606112d48261182f565b611313576040517f08c379a000000000000000000000000000000000000000000000000000000000815260040161130a906136ec565b60405180910390fd5b600061131d6120ac565b9050600081511161133d5760405180602001604052806000815250611368565b80611347846120cc565b60405160200161135892919061331f565b6040516020818303038152906040525b915050919050565b6000678ac7230489e800007f000000000000000000000000000000000000000000000000000000000000000073ffffffffffffffffffffffffffffffffffffffff166370a08231336040518263ffffffff1660e01b81526004016113d49190613358565b60206040518083038186803b1580156113ec57600080fd5b505afa158015611400573d6000803e3d6000fd5b505050506040513d601f19601f820116820180604052508101906114249190612a75565b1015806114e25750683635c9adc5dea000007f000000000000000000000000000000000000000000000000000000000000000073ffffffffffffffffffffffffffffffffffffffff166370a08231336040518263ffffffff1660e01b815260040161148f9190613358565b60206040518083038186803b1580156114a757600080fd5b505afa1580156114bb573d6000803e3d6000fd5b505050506040513d601f19601f820116820180604052508101906114df9190612a75565b10155b905090565b6114ef61189b565b73ffffffffffffffffffffffffffffffffffffffff1661150d610da4565b73ffffffffffffffffffffffffffffffffffffffff1614611563576040517f08c379a000000000000000000000000000000000000000000000000000000000815260040161155a906136ac565b60405180910390fd5b600061156d610da4565b73ffffffffffffffffffffffffffffffffffffffff164760405161159090613343565b60006040518083038185875af1925050503d80600081146115cd576040519150601f19603f3d011682016040523d82523d6000602084013e6115d2565b606091505b5050905080611616576040517f08c379a000000000000000000000000000000000000000000000000000000000815260040161160d9061354c565b60405180910390fd5b50565b60606040518060600160405280602b8152602001613bd2602b9139905090565b6000600560008473ffffffffffffffffffffffffffffffffffffffff1673ffffffffffffffffffffffffffffffffffffffff16815260200190815260200160002060008373ffffffffffffffffffffffffffffffffffffffff1673ffffffffffffffffffffffffffffffffffffffff16815260200190815260200160002060009054906101000a900460ff16905092915050565b6116d561189b565b73ffffffffffffffffffffffffffffffffffffffff166116f3610da4565b73ffffffffffffffffffffffffffffffffffffffff1614611749576040517f08c379a0000000000000000000000000000000000000000000000000000000008152600401611740906136ac565b60405180910390fd5b600073ffffffffffffffffffffffffffffffffffffffff168173ffffffffffffffffffffffffffffffffffffffff1614156117b9576040517f08c379a00000000000000000000000000000000000000000000000000000000081526004016117b09061350c565b60405180910390fd5b6117c281611e1c565b50565b60007f01ffc9a7000000000000000000000000000000000000000000000000000000007bffffffffffffffffffffffffffffffffffffffffffffffffffffffff1916827bffffffffffffffffffffffffffffffffffffffffffffffffffffffff1916149050919050565b60008073ffffffffffffffffffffffffffffffffffffffff166002600084815260200190815260200160002060009054906101000a900473ffffffffffffffffffffffffffffffffffffffff1673ffffffffffffffffffffffffffffffffffffffff1614159050919050565b600033905090565b816004600083815260200190815260200160002060006101000a81548173ffffffffffffffffffffffffffffffffffffffff021916908373ffffffffffffffffffffffffffffffffffffffff160217905550808273ffffffffffffffffffffffffffffffffffffffff166119168361094f565b73ffffffffffffffffffffffffffffffffffffffff167f8c5be1e5ebec7d5bd14f71427d1e84f3dd0314c0f7b2291e5b200ac8c7c3b92560405160405180910390a45050565b60006119678261182f565b6119a6576040517f08c379a000000000000000000000000000000000000000000000000000000000815260040161199d906135ac565b60405180910390fd5b60006119b18361094f565b90508073ffffffffffffffffffffffffffffffffffffffff168473ffffffffffffffffffffffffffffffffffffffff161480611a2057508373ffffffffffffffffffffffffffffffffffffffff16611a088461072c565b73ffffffffffffffffffffffffffffffffffffffff16145b80611a315750611a308185611639565b5b91505092915050565b8273ffffffffffffffffffffffffffffffffffffffff16611a5a8261094f565b73ffffffffffffffffffffffffffffffffffffffff1614611ab0576040517f08c379a0000000000000000000000000000000000000000000000000000000008152600401611aa7906136cc565b60405180910390fd5b600073ffffffffffffffffffffffffffffffffffffffff168273ffffffffffffffffffffffffffffffffffffffff161415611b20576040517f08c379a0000000000000000000000000000000000000000000000000000000008152600401611b179061356c565b60405180910390fd5b611b2b838383612279565b611b366000826118a3565b6001600360008573ffffffffffffffffffffffffffffffffffffffff1673ffffffffffffffffffffffffffffffffffffffff1681526020019081526020016000206000828254611b8691906138dd565b925050819055506001600360008473ffffffffffffffffffffffffffffffffffffffff1673ffffffffffffffffffffffffffffffffffffffff1681526020019081526020016000206000828254611bdd9190613856565b92505081905550816002600083815260200190815260200160002060006101000a81548173ffffffffffffffffffffffffffffffffffffffff021916908373ffffffffffffffffffffffffffffffffffffffff160217905550808273ffffffffffffffffffffffffffffffffffffffff168473ffffffffffffffffffffffffffffffffffffffff167fddf252ad1be2c89b69c2b068fc378daa952ba7f163c4a11628f55a4df523b3ef60405160405180910390a4505050565b600081600001549050919050565b60007f000000000000000000000000000000000000000000000000000000000000000073ffffffffffffffffffffffffffffffffffffffff16634000aea07f000000000000000000000000000000000000000000000000000000000000000084866000604051602001611d1892919061345c565b6040516020818303038152906040526040518463ffffffff1660e01b8152600401611d45939291906133e8565b602060405180830381600087803b158015611d5f57600080fd5b505af1158015611d73573d6000803e3d6000fd5b505050506040513d601f19601f82011682018060405250810190611d979190612995565b506000611dba84600030600660008981526020019081526020016000205461227e565b905060016006600086815260200190815260200160002054611ddc9190613856565b6006600086815260200190815260200160002081905550611dfd84826122ba565b91505092915050565b6001816000016000828254019250508190555050565b6000600760009054906101000a900473ffffffffffffffffffffffffffffffffffffffff16905081600760006101000a81548173ffffffffffffffffffffffffffffffffffffffff021916908373ffffffffffffffffffffffffffffffffffffffff1602179055508173ffffffffffffffffffffffffffffffffffffffff168173ffffffffffffffffffffffffffffffffffffffff167f8be0079c531659141344cd1fd0a4f28419497f9722a3daafe3b4186f6b6457e060405160405180910390a35050565b6000600e600084815260200190815260200160002054905060006103e883611f0a9190613a60565b90506000805b600f80549050811015611fd45782600f8281548110611f58577f4e487b7100000000000000000000000000000000000000000000000000000000600052603260045260246000fd5b906000526020600020015410158015611fb4575082600f8281548110611fa7577f4e487b7100000000000000000000000000000000000000000000000000000000600052603260045260246000fd5b9060005260206000200154105b15611fc157809150611fd4565b8080611fcc90613a03565b915050611f10565b50600181611fe29190613856565b600c600085815260200190815260200160002081905550612049600d600087815260200190815260200160002060009054906101000a900473ffffffffffffffffffffffffffffffffffffffff16600e6000888152602001908152602001600020546122ed565b5050505050565b61205b848484611a3a565b6120678484848461230b565b6120a6576040517f08c379a000000000000000000000000000000000000000000000000000000000815260040161209d906134ec565b60405180910390fd5b50505050565b60606040518060600160405280602b8152602001613bfd602b9139905090565b60606000821415612114576040518060400160405280600181526020017f30000000000000000000000000000000000000000000000000000000000000008152509050612274565b600082905060005b6000821461214657808061212f90613a03565b915050600a8261213f91906138ac565b915061211c565b60008167ffffffffffffffff811115612188577f4e487b7100000000000000000000000000000000000000000000000000000000600052604160045260246000fd5b6040519080825280601f01601f1916602001820160405280156121ba5781602001600182028036833780820191505090505b5090505b6000851461226d576001826121d391906138dd565b9150600a856121e29190613a60565b60306121ee9190613856565b60f81b81838151811061222a577f4e487b7100000000000000000000000000000000000000000000000000000000600052603260045260246000fd5b60200101907effffffffffffffffffffffffffffffffffffffffffffffffffffffffffffff1916908160001a905350600a8561226691906138ac565b94506121be565b8093505050505b919050565b505050565b6000848484846040516020016122979493929190613485565b6040516020818303038152906040528051906020012060001c9050949350505050565b600082826040516020016122cf9291906132f3565b60405160208183030381529060405280519060200120905092915050565b6123078282604051806020016040528060008152506124a2565b5050565b600061232c8473ffffffffffffffffffffffffffffffffffffffff166124fd565b15612495578373ffffffffffffffffffffffffffffffffffffffff1663150b7a0261235561189b565b8786866040518563ffffffff1660e01b81526004016123779493929190613373565b602060405180830381600087803b15801561239157600080fd5b505af19250505080156123c257506040513d601f19601f820116820180604052508101906123bf9190612a23565b60015b612445573d80600081146123f2576040519150601f19603f3d011682016040523d82523d6000602084013e6123f7565b606091505b5060008151141561243d576040517f08c379a0000000000000000000000000000000000000000000000000000000008152600401612434906134ec565b60405180910390fd5b805181602001fd5b63150b7a0260e01b7bffffffffffffffffffffffffffffffffffffffffffffffffffffffff1916817bffffffffffffffffffffffffffffffffffffffffffffffffffffffff19161491505061249a565b600190505b949350505050565b6124ac8383612510565b6124b9600084848461230b565b6124f8576040517f08c379a00000000000000000000000000000000000000000000000000000000081526004016124ef906134ec565b60405180910390fd5b505050565b600080823b905060008111915050919050565b600073ffffffffffffffffffffffffffffffffffffffff168273ffffffffffffffffffffffffffffffffffffffff161415612580576040517f08c379a00000000000000000000000000000000000000000000000000000000081526004016125779061364c565b60405180910390fd5b6125898161182f565b156125c9576040517f08c379a00000000000000000000000000000000000000000000000000000000081526004016125c09061352c565b60405180910390fd5b6125d560008383612279565b6001600360008473ffffffffffffffffffffffffffffffffffffffff1673ffffffffffffffffffffffffffffffffffffffff16815260200190815260200160002060008282546126259190613856565b92505081905550816002600083815260200190815260200160002060006101000a81548173ffffffffffffffffffffffffffffffffffffffff021916908373ffffffffffffffffffffffffffffffffffffffff160217905550808273ffffffffffffffffffffffffffffffffffffffff16600073ffffffffffffffffffffffffffffffffffffffff167fddf252ad1be2c89b69c2b068fc378daa952ba7f163c4a11628f55a4df523b3ef60405160405180910390a45050565b60006126f16126ec846137d8565b6137a7565b90508281526020810184848401111561270957600080fd5b61271484828561398f565b509392505050565b60008135905061272b81613b5e565b92915050565b60008135905061274081613b75565b92915050565b60008151905061275581613b75565b92915050565b60008135905061276a81613b8c565b92915050565b60008135905061277f81613ba3565b92915050565b60008151905061279481613ba3565b92915050565b600082601f8301126127ab57600080fd5b81356127bb8482602086016126de565b91505092915050565b6000813590506127d381613bba565b92915050565b6000815190506127e881613bba565b92915050565b60006020828403121561280057600080fd5b600061280e8482850161271c565b91505092915050565b6000806040838503121561282a57600080fd5b60006128388582860161271c565b92505060206128498582860161271c565b9150509250929050565b60008060006060848603121561286857600080fd5b60006128768682870161271c565b93505060206128878682870161271c565b9250506040612898868287016127c4565b9150509250925092565b600080600080608085870312156128b857600080fd5b60006128c68782880161271c565b94505060206128d78782880161271c565b93505060406128e8878288016127c4565b925050606085013567ffffffffffffffff81111561290557600080fd5b6129118782880161279a565b91505092959194509250565b6000806040838503121561293057600080fd5b600061293e8582860161271c565b925050602061294f85828601612731565b9150509250929050565b6000806040838503121561296c57600080fd5b600061297a8582860161271c565b925050602061298b858286016127c4565b9150509250929050565b6000602082840312156129a757600080fd5b60006129b584828501612746565b91505092915050565b600080604083850312156129d157600080fd5b60006129df8582860161275b565b92505060206129f0858286016127c4565b9150509250929050565b600060208284031215612a0c57600080fd5b6000612a1a84828501612770565b91505092915050565b600060208284031215612a3557600080fd5b6000612a4384828501612785565b91505092915050565b600060208284031215612a5e57600080fd5b6000612a6c848285016127c4565b91505092915050565b600060208284031215612a8757600080fd5b6000612a95848285016127d9565b91505092915050565b612aa781613911565b82525050565b612ab681613923565b82525050565b612ac58161392f565b82525050565b612adc612ad78261392f565b613a4c565b82525050565b6000612aed82613808565b612af7818561381e565b9350612b0781856020860161399e565b612b1081613b4d565b840191505092915050565b6000612b2682613813565b612b30818561383a565b9350612b4081856020860161399e565b612b4981613b4d565b840191505092915050565b6000612b5f82613813565b612b69818561384b565b9350612b7981856020860161399e565b80840191505092915050565b6000612b9260328361383a565b91507f4552433732313a207472616e7366657220746f206e6f6e20455243373231526560008301527f63656976657220696d706c656d656e74657200000000000000000000000000006020830152604082019050919050565b6000612bf860268361383a565b91507f4f776e61626c653a206e6577206f776e657220697320746865207a65726f206160008301527f64647265737300000000000000000000000000000000000000000000000000006020830152604082019050919050565b6000612c5e601c8361383a565b91507f4552433732313a20746f6b656e20616c7265616479206d696e746564000000006000830152602082019050919050565b6000612c9e60148361383a565b91507f4661696c656420746f2073656e642045746865720000000000000000000000006000830152602082019050919050565b6000612cde60248361383a565b91507f4552433732313a207472616e7366657220746f20746865207a65726f2061646460008301527f72657373000000000000000000000000000000000000000000000000000000006020830152604082019050919050565b6000612d4460198361383a565b91507f4552433732313a20617070726f766520746f2063616c6c6572000000000000006000830152602082019050919050565b6000612d84602c8361383a565b91507f4552433732313a206f70657261746f7220717565727920666f72206e6f6e657860008301527f697374656e7420746f6b656e00000000000000000000000000000000000000006020830152604082019050919050565b6000612dea60388361383a565b91507f4552433732313a20617070726f76652063616c6c6572206973206e6f74206f7760008301527f6e6572206e6f7220617070726f76656420666f7220616c6c00000000000000006020830152604082019050919050565b6000612e50602a8361383a565b91507f4552433732313a2062616c616e636520717565727920666f7220746865207a6560008301527f726f2061646472657373000000000000000000000000000000000000000000006020830152604082019050919050565b6000612eb660298361383a565b91507f4552433732313a206f776e657220717565727920666f72206e6f6e657869737460008301527f656e7420746f6b656e00000000000000000000000000000000000000000000006020830152604082019050919050565b6000612f1c60298361383a565b91507f4e6f7420656e6f756768204c494e4b202d2066696c6c20636f6e74726163742060008301527f77697468204c696e6b00000000000000000000000000000000000000000000006020830152604082019050919050565b6000612f8260208361383a565b91507f4552433732313a206d696e7420746f20746865207a65726f20616464726573736000830152602082019050919050565b6000612fc260128361383a565b91507f4d617820537570706c79207265616368656400000000000000000000000000006000830152602082019050919050565b6000613002602c8361383a565b91507f4552433732313a20617070726f76656420717565727920666f72206e6f6e657860008301527f697374656e7420746f6b656e00000000000000000000000000000000000000006020830152604082019050919050565b600061306860208361383a565b91507f4f776e61626c653a2063616c6c6572206973206e6f7420746865206f776e65726000830152602082019050919050565b60006130a860298361383a565b91507f4552433732313a207472616e73666572206f6620746f6b656e2074686174206960008301527f73206e6f74206f776e00000000000000000000000000000000000000000000006020830152604082019050919050565b600061310e602f8361383a565b91507f4552433732314d657461646174613a2055524920717565727920666f72206e6f60008301527f6e6578697374656e7420746f6b656e00000000000000000000000000000000006020830152604082019050919050565b6000613174601f8361383a565b91507f4f6e6c7920565246436f6f7264696e61746f722063616e2066756c66696c6c006000830152602082019050919050565b60006131b460218361383a565b91507f4552433732313a20617070726f76616c20746f2063757272656e74206f776e6560008301527f72000000000000000000000000000000000000000000000000000000000000006020830152604082019050919050565b600061321a60008361382f565b9150600082019050919050565b600061323460318361383a565b91507f4552433732313a207472616e736665722063616c6c6572206973206e6f74206f60008301527f776e6572206e6f7220617070726f7665640000000000000000000000000000006020830152604082019050919050565b600061329a60118361383a565b91507f4e6f7420656e6f75676820616d6f756e740000000000000000000000000000006000830152602082019050919050565b6132d681613985565b82525050565b6132ed6132e882613985565b613a56565b82525050565b60006132ff8285612acb565b60208201915061330f82846132dc565b6020820191508190509392505050565b600061332b8285612b54565b91506133378284612b54565b91508190509392505050565b600061334e8261320d565b9150819050919050565b600060208201905061336d6000830184612a9e565b92915050565b60006080820190506133886000830187612a9e565b6133956020830186612a9e565b6133a260408301856132cd565b81810360608301526133b48184612ae2565b905095945050505050565b60006040820190506133d46000830185612a9e565b6133e160208301846132cd565b9392505050565b60006060820190506133fd6000830186612a9e565b61340a60208301856132cd565b818103604083015261341c8184612ae2565b9050949350505050565b600060208201905061343b6000830184612aad565b92915050565b60006020820190506134566000830184612abc565b92915050565b60006040820190506134716000830185612abc565b61347e60208301846132cd565b9392505050565b600060808201905061349a6000830187612abc565b6134a760208301866132cd565b6134b46040830185612a9e565b6134c160608301846132cd565b95945050505050565b600060208201905081810360008301526134e48184612b1b565b905092915050565b6000602082019050818103600083015261350581612b85565b9050919050565b6000602082019050818103600083015261352581612beb565b9050919050565b6000602082019050818103600083015261354581612c51565b9050919050565b6000602082019050818103600083015261356581612c91565b9050919050565b6000602082019050818103600083015261358581612cd1565b9050919050565b600060208201905081810360008301526135a581612d37565b9050919050565b600060208201905081810360008301526135c581612d77565b9050919050565b600060208201905081810360008301526135e581612ddd565b9050919050565b6000602082019050818103600083015261360581612e43565b9050919050565b6000602082019050818103600083015261362581612ea9565b9050919050565b6000602082019050818103600083015261364581612f0f565b9050919050565b6000602082019050818103600083015261366581612f75565b9050919050565b6000602082019050818103600083015261368581612fb5565b9050919050565b600060208201905081810360008301526136a581612ff5565b9050919050565b600060208201905081810360008301526136c58161305b565b9050919050565b600060208201905081810360008301526136e58161309b565b9050919050565b6000602082019050818103600083015261370581613101565b9050919050565b6000602082019050818103600083015261372581613167565b9050919050565b60006020820190508181036000830152613745816131a7565b9050919050565b6000602082019050818103600083015261376581613227565b9050919050565b600060208201905081810360008301526137858161328d565b9050919050565b60006020820190506137a160008301846132cd565b92915050565b6000604051905081810181811067ffffffffffffffff821117156137ce576137cd613b1e565b5b8060405250919050565b600067ffffffffffffffff8211156137f3576137f2613b1e565b5b601f19601f8301169050602081019050919050565b600081519050919050565b600081519050919050565b600082825260208201905092915050565b600081905092915050565b600082825260208201905092915050565b600081905092915050565b600061386182613985565b915061386c83613985565b9250827fffffffffffffffffffffffffffffffffffffffffffffffffffffffffffffffff038211156138a1576138a0613a91565b5b828201905092915050565b60006138b782613985565b91506138c283613985565b9250826138d2576138d1613ac0565b5b828204905092915050565b60006138e882613985565b91506138f383613985565b92508282101561390657613905613a91565b5b828203905092915050565b600061391c82613965565b9050919050565b60008115159050919050565b6000819050919050565b60007fffffffff0000000000000000000000000000000000000000000000000000000082169050919050565b600073ffffffffffffffffffffffffffffffffffffffff82169050919050565b6000819050919050565b82818337600083830152505050565b60005b838110156139bc5780820151818401526020810190506139a1565b838111156139cb576000848401525b50505050565b600060028204905060018216806139e957607f821691505b602082108114156139fd576139fc613aef565b5b50919050565b6000613a0e82613985565b91507fffffffffffffffffffffffffffffffffffffffffffffffffffffffffffffffff821415613a4157613a40613a91565b5b600182019050919050565b6000819050919050565b6000819050919050565b6000613a6b82613985565b9150613a7683613985565b925082613a8657613a85613ac0565b5b828206905092915050565b7f4e487b7100000000000000000000000000000000000000000000000000000000600052601160045260246000fd5b7f4e487b7100000000000000000000000000000000000000000000000000000000600052601260045260246000fd5b7f4e487b7100000000000000000000000000000000000000000000000000000000600052602260045260246000fd5b7f4e487b7100000000000000000000000000000000000000000000000000000000600052604160045260246000fd5b6000601f19601f8301169050919050565b613b6781613911565b8114613b7257600080fd5b50565b613b7e81613923565b8114613b8957600080fd5b50565b613b958161392f565b8114613ba057600080fd5b50565b613bac81613939565b8114613bb757600080fd5b50565b613bc381613985565b8114613bce57600080fd5b5056fe68747470733a2f2f636f696e6c65616775656368616d70696f6e732e6465786b69742e636f6d2f696e666f68747470733a2f2f636f696e6c65616775656368616d70696f6e732e6465786b69742e636f6d2f6170692fa2646970667358221220e64818b452ecc73203f7dcc6c9003cec3fc2af57b23dcbb91a088693822c18ef64736f6c63430008000033",
  "linkReferences": {},
  "deployedLinkReferences": {}
}